:10099B00553D25302E31660020493D25302E3266DF
:1009AB0000663D25302E320020543D25302E326618
:0D09BB00005374617274696E672E2E2E0059
:100A5D00C109843042F00000840040A0A3D7842651
:100A6D0041C628F6842A42470A3D812E00812F0077
:1006500012095B120910120AD87BFF7A0979BCC211
:10066000001208C47FE8120A3C120A9CE41205BA80
:10067000780012039E7800E2FC08E2FD08E2FE0822
:10068000E2FF7BFF7AFF797F784B12051D7800121D
:10069000039E7800E2FC08E2FD08E2FE08E2FFE4C7
:1006A000FBFA79207841120414780012039E120A92
:1006B000BAE41205BA782612039E7826E2FC08E214
:1006C000FD08E2FE08E2FF7BFF7AFF797F784B129C
:1006D000051D782612039E7826E2FC08E2FD08E25A
:1006E000FE08E2FFE4FBFA79C87842120414782687
:1006F00012039E120A7EE41205BA783012039E7825
:1007000030E2FC08E2FD08E2FE08E2FF7BFF7AFF30
:10071000797F784B12051D783012039E7830E2FC09
:1007200008E2FD08E2FE08E2FFE4FBFA79FA78430A
:10073000120414783012039E783774FFF20874099B
:10074000F208749BF27830E2FC08E2FD08E2FE0851
:10075000E2FF783A12039E783E74FFF2087409F2C1
:100760000874A3F27800E2FC08E2FD08E2FE08E269
:10077000FF784112039E7BFE7A0079041200727B9F
:10078000FE7A007904C2001208C4783774FFF208B8
:100790007409F20874ACF2782AE2FC08E2FD08E27F
:1007A000FE08E2FF783A12039E783E74FFF2087466
:1007B00009F20874B3F27826E2FC08E2FD08E2FED2
:1007C00008E2FF784112039E7BFE7A007915120041
:1007D000727BFE7A007915D2001208C4200902C18A
:0307E0006980F934
:100AD800D2AFD288D2A8D28AD2AAD2A9538E7F53B3
:0D0AE80089F0E4F58A758C4CC28DD28C2209
:100B3E00C2A0D2A1D2A200000000A2879201C2A23E
:020B4E00A20102
:010B50002282
:100AF500120B3E40FBC2A0C2A1C2A200008F800023
:0A0B0500000000D2A20000C2A222EC
:070B5100EF4480FF020AF5EA
:100B0F00120B3E40FBD2A0C2A1C2A200008F8000F8
:0A0B1F00000000D2A20000C2A222D2
:10095B007F0F120A3C7F38120AF57F05120A3C7F83
:10096B0038120AF57F05120A3C7F38120AF57F050B
:10097B00120A3C7F0F120AF57F05120A3C7F061202
:10098B000AF51F120A3C7F01120AF57F05020A3C89
:0A08C4007834EBF208EAF208E9F2DA
:1008CE00E408F27F01120AF57F05120A3C200004AB
:1008DE00E4FF80027F40120B51801F7834E2FB0848
:1008EE00E2FA08E2F908E2F582758300120371FF5D
:1008FE00600F120B0F7837E204F27F05120A3C806C
:01090E00DA0E
:01090F0022C5
:0F09C8001209D7E4FF1209D7E4FF1209D7E4FFA1
:1009D700E4FEC297EF30E704D2958002C295D29722
:0909E700EF25E0FF0EEEB408E973
:0109F00022E4
:080A1800EFF2120A2008EFF2D0
:100A2000E4FEC297EF25E0FFD2973096054401FF20
:0B0A30008004EF54FEFF0EEEB408E758
:010A3B002298
:100910007FFF1209D77FFF1209D77FFF1209D77F08
:10092000FE1209D77F5E1209D77F801209C87F4067
:100930001209CD7F011209D77F4A1209D27F0F1207
:1009400009D77FA01209D77F741209C87F641209E2
:0B095000CD7F011209D77FE80209D714
:100A7E007F181209D7120A207834120A1808EFF2DA
:0D0A8E007834E2FC08E2FD08E2FE08E2FF19
:010A9B002238
:100A9C007F161209D7120A207834120A1808EFF2BE
:0D0AAC007834E2FC08E2FD08E2FE08E2FFFB
:010AB900221A
:100ABA007F261209D7120A207834120A1808EFF290
:0D0ACA007834E2FC08E2FD08E2FE08E2FFDD
:010AD70022FC
:060A3C00AE071FEE601A78
:100A4200007838740BF20874BEF27839E214F2704E
:080A5200F97838E214F270F2A9
:030A5A0080E02217
:03000300020B29C4
:100B2900C0E0C0D075D000C000782FE204F2D00038
:050B3900D0D0D0E03235
:03000B0002086F79
:10086F00C0E0C0F0C083C082C0D075D000C000C04F
:10087F0001C002C003C004C005C006C007782EE245
:10088F0004F2E2B41414E4F208E2FF74018FF0846E
:10089F00FCE41205C4782A12039ED007D006D005B7
:1008AF00D004D003D002D001D000D0D0D082D083DA
:0508BF00D0F0D0E03292
:03001300020006E2
:03000600B209320A
:030000000207E311
:0C07E300787FE4F6D8FD75812102082A19
:10037100BB010CE58229F582E5833AF583E0225041
:1003810006E92582F8E622BBFE06E92582F8E2228B
:0D039100E58229F582E5833AF583E49322A5
:0C039E00ECF208EDF208EEF208EFF2229B
:10001600E5082437F8E205082278343007027837F5
:10002600E475F0011203D50203AA2000EB7F2ED25D
:10003600008018EF540F2490D43440D4FF30040BC2
:10004600EF24BFB41A0050032461FFE509600215CE
:1000560009050CE50C7002050B30070D7834E475C4
:10006600F0011203D5EF0203C30209F17403D207AC
:100076008003E4C207F50878341203E5E4F509F5D0
:100086000BF50CE50960077F2012005180F5750A13
:10009600FFC201C200C202C203C205C206C20812E2
:1000A600001FFF700D3007057F00120062AF0CAE17
:1000B6000B22B4255FC2D5C20412001FFF24D0B4A0
:1000C6000A00501A75F00A780930D50508B6FF01FE
:1000D60006C6A426F620D5047002D20380D924CF02
:1000E600B41A00EF5004C2E5D204020261D20180C4
:1000F600C6D20080C0D20280BCD2D580BAD20580DA
:10010600B47F201200512002077401B5090040F1A6
:10011600120016FF120051020089D208D2068095FD
:10012600120016FB120016FA120016F94A4B700658
:1001360079327A037BFF20022EE509602A7E008E43
:100146008275830012037160060EEE650A70F0C2B6
:10015600D5EBC0E0EAC0E0E9C0E0EE1202A8D0E0CC
:10016600F9D0E0FAD0E0FB1203AAFF60AAEBC0E0E8
:10017600EAC0E0E9C0E0120051D0E02401F9D0E085
:100186003400FAD0E0FBE50A0460DCD50AD98087A2
:100196007BFF7A0279A4D202809C791080027908CA
:1001A600C206C2088008D2D5790A8004790AC2D567
:1001B600E50A047002F50AE4FAFDFEFF120016FCD9
:1001C6007B08200113120016FD7B1030000A120076
:1001D60016FE120016FF7B20EC3382D592D5501303
:1001E600C3E43000069FFFE49EFEE42001039DFD6C
:1001F600E49CFCE4CBF8C201EC700CCFCECDCCE88D
:1002060024F8F870F38017C3EF33FFEE33FEED33B7
:10021600FDEC33FCEB33FB994002FB0FD8E9EB30E6
:100226000105F8D0E0C448B201C0E00AEC4D4E4FDB
:1002360078207B0070C2EAB50A0040BCC0E012021A
:10024600AAD0F0D0E0200104C4C0E0C4B201C0F0DE
:1002560012003AD0F0D5F0EB0200891203EE012627
:100266005301A05800F74C00F34201A44F01AC44DF
:1002760001AC49010C4301B2550196460196450170
:0102860096E1
:100287004703525000FB2D00FF2E01222B010323B1
:10029700012020033B2A00BB480000011A3F3F3FD3
:1002A70000790AA2D5200314300509B91002040405
:1002B700B9080104A2D52006025001042002689261
:1002C70002B509005034C0E07F203003197F30A207
:1002D7000272067205500F120301C202C206C2055E
:1002E700C2087F30800F300503E9C0E012005130AB
:1002F7000503D0E0F9D0E0B509CC3005177F30B958
:10030700100C1200517F583004077F788003B9081A
:10031700031200513002057F2D0200517F20200873
:10032700F87F2B2006F322920280CF286E756C6C23
:100337002900D2011200163001F8C201780930D520
:100347000108F60200BB2D5043495812001624033A
:10035700B405004001E490034D93120042743A1231
:0A0367000042D2037509040201A050
:1007EF00020650E493A3F8E493A34003F68001F2CA
:1007FF0008DFF48029E493A3F85407240CC8C3330B
:10080F00C4540F4420C8834004F456800146F6DFD9
:10081F00E4800B0102040810204080900A5DE47E02
:10082F00019360BCA3FF543F30E509541FFEE493CE
:10083F00A360010ECF54C025E060A840B8E493A395
:10084F00FAE493A3F8E493A3C8C582C8CAC583CAC0
:10085F00F0A3C8C582C8CAC583CADFE9DEE780BE78
:010A7D000078
:1003AA00BB010689828A83E0225002E722BBFE0251
:0903BA00E32289828A83E4932284
:1003C300BB010689828A83F0225002F722BBFE0119
:0203D300F32213
:1003D500FAE2FB0808E2F925F0F218E2CA3AF2223D
:0903E500EBF208EAF208E9F22249
:1003EE00D083D082F8E4937012740193700DA3A39E
:1003FE0093F8740193F5828883E4737402936860B2
:06040E00EFA3A3A380DFB1
:1009F100EFB40A07740D1209FC740A309811A89912
:100A0100B8130CC2983098FDA899C298B811F63065
:070A110099FDC299F599223D
:10041400EC4D6011E8497017ED33EC3304600DE4E2
:10042400FCFFFEFD22E933E8330470F802062D12C6
:1004340005F858046009E4CC2481500628500902C8
:100444000637284003020634C0E0EB4A7044B98002
:1004540006D0E0FB020623EF4E701CBD8008EBFFC4
:10046400EAFEE9FD80EBE98DF0A4FEE5F00204FD6F
:10047400E9CDF9EAFEEBFFEF89F0A4FCE5F0CE89C3
:10048400F0A42EFFE435F0CD89F0A42DFEE435F080
:100494008067EF4E7005BD80D780C3EF8BF0A4ACAE
:1004A400F0EE8BF0A42CFCE435F0F8EF8AF0A42CE9
:1004B400E5F038FCE433CB8DF0A42CFCE5F03BF8FC
:1004C400EE8AF0A42CFCE5F038F8E433CF89F0A4EC
:1004D4002CFCE5F038CF3400CE89F0A42FFFE5F0F2
:1004E4003EFEE433C98DF0A42EFEE5F039CD8AF04A
:1004F400A42FFFE5F03EFEE43DFD33D0E0FB5007C2
:100504000BBB000F020637EC2CFCEF33FFEE33FE7F
:06051400ED33FD02060FAD
:10051A00020637EC5D046005E85904700302062DF3
:10052A001205F8580460F6EC4860F2EC7004FDFE1F
:10053A00FF22C860DB2481C85009C39860025006B4
:10054A000206349850CAF582E9294B4A7005AB82F3
:10055A0002062375F0007C1A7880C3EF9BEE9AEDB1
:10056A0099400DC3EF9BFFEE9AFEED99FDE842F02C
:10057A00DC23ACF0D0E0FFD0E0FED0E0FDAB82207F
:10058A00E7101BEB60BAEC2CFCEF33FFEE33FEED09
:10059A0033FD02060FE803F830E705C0F075F000F6
:1005AA00EF2FFFEE33FEED33FD40B830E7C280AAED
:1005BA0075F020800E75F010800575F0087D007EBC
:1005CA00007F003392D530D503120642EC33401037
:1005DA00EF33FFEE33FEED33FDEC33FCD5F0ED22C5
:0E05EA00E5F0247EA2D513CC92E7CDCEFF2201
:1005F800E9D2E7C933E833F892D5EDD2E7CD33EC49
:0706080033FC5002B2D522C1
:10060F00EC30E7100FBF000C0EBE00080DBD00044C
:10061F000BEB6014A2D5EB13FCED92E7FD2274FFF8
:10062F00FCFDFEFF22E480F8A2D574FF13FC7D8051
:03063F00E480EF65
:0E064200C3E49FFFE49EFEE49DFDE49CFC22C9
:00000001FF
